{
  "_format": "hh-sol-artifact-1",
  "contractName": "TipJar",
  "sourceName": "src/contracts/TipJar.sol",
  "abi": [
    {
      "inputs": [],
      "stateMutability": "nonpayable",
      "type": "constructor"
    },
    {
      "anonymous": false,
      "inputs": [
        {
          "indexed": true,
          "internalType": "address",
          "name": "from",
          "type": "address"
        },
        {
          "indexed": false,
          "internalType": "string",
          "name": "message",
          "type": "string"
        },
        {
          "indexed": false,
          "internalType": "string",
          "name": "name",
          "type": "string"
        },
        {
          "indexed": false,
          "internalType": "uint256",
          "name": "amount",
          "type": "uint256"
        }
      ],
      "name": "NewTip",
      "type": "event"
    },
    {
      "anonymous": false,
      "inputs": [
        {
          "indexed": false,
          "internalType": "uint256",
          "name": "amount",
          "type": "uint256"
        }
      ],
      "name": "NewWithdraw",
      "type": "event"
    },
    {
      "inputs": [],
      "name": "getAllTips",
      "outputs": [
        {
          "components": [
            {
              "internalType": "address",
              "name": "sender",
              "type": "address"
            },
            {
              "internalType": "string",
              "name": "message",
              "type": "string"
            },
            {
              "internalType": "string",
              "name": "name",
              "type": "string"
            },
            {
              "internalType": "uint256",
              "name": "timestamp",
              "type": "uint256"
            },
            {
              "internalType": "uint256",
              "name": "amount",
              "type": "uint256"
            }
          ],
          "internalType": "struct TipJar.Tip[]",
          "name": "",
          "type": "tuple[]"
        }
      ],
      "stateMutability": "view",
      "type": "function"
    },
    {
      "inputs": [
        {
          "internalType": "string",
          "name": "_message",
          "type": "string"
        },
        {
          "internalType": "string",
          "name": "_name",
          "type": "string"
        }
      ],
      "name": "sendTip",
      "outputs": [],
      "stateMutability": "payable",
      "type": "function"
    },
    {
      "inputs": [],
      "name": "totalTips",
      "outputs": [
        {
          "internalType": "uint256",
          "name": "",
          "type": "uint256"
        }
      ],
      "stateMutability": "view",
      "type": "function"
    },
    {
      "inputs": [],
      "name": "withdraw",
      "outputs": [],
      "stateMutability": "nonpayable",
      "type": "function"
    }
  ],
  "bytecode": "0x608060405234801561001057600080fd5b5033600160006101000a81548173ffffffffffffffffffffffffffffffffffffffff021916908373ffffffffffffffffffffffffffffffffffffffff160217905550610eec806100616000396000f3fe60806040526004361061003f5760003560e01c8063399ddbbd146100445780633ccfd60b1461006f57806354cafb0414610086578063990de8ae146100a2575b600080fd5b34801561005057600080fd5b506100596100cd565b604051610066919061093e565b60405180910390f35b34801561007b57600080fd5b506100846102ba565b005b6100a0600480360381019061009b9190610aa9565b61049b565b005b3480156100ae57600080fd5b506100b7610663565b6040516100c49190610b30565b60405180910390f35b60606002805480602002602001604051908101604052809291908181526020016000905b828210156102b157838290600052602060002090600502016040518060a00160405290816000820160009054906101000a900473ffffffffffffffffffffffffffffffffffffffff1673ffffffffffffffffffffffffffffffffffffffff1673ffffffffffffffffffffffffffffffffffffffff16815260200160018201805461017a90610b7a565b80601f01602080910402602001604051908101604052809291908181526020018280546101a690610b7a565b80156101f35780601f106101c8576101008083540402835291602001916101f3565b820191906000526020600020905b8154815290600101906020018083116101d657829003601f168201915b5050505050815260200160028201805461020c90610b7a565b80601f016020809104026020016040519081016040528092919081815260200182805461023890610b7a565b80156102855780601f1061025a57610100808354040283529160200191610285565b820191906000526020600020905b81548152906001019060200180831161026857829003601f168201915b5050505050815260200160038201548152602001600482015481525050815260200190600101906100f1565b50505050905090565b3373ffffffffffffffffffffffffffffffffffffffff16600160009054906101000a900473ffffffffffffffffffffffffffffffffffffffff1673ffffffffffffffffffffffffffffffffffffffff161461034a576040517f08c379a000000000000000000000000000000000000000000000000000000000815260040161034190610c09565b60405180910390fd5b600047905060008111610392576040517f08c379a000000000000000000000000000000000000000000000000000000000815260040161038990610c75565b60405180910390fd5b6000600160009054906101000a900473ffffffffffffffffffffffffffffffffffffffff1673ffffffffffffffffffffffffffffffffffffffff16826040516103da90610cc6565b60006040518083038185875af1925050503d8060008114610417576040519150601f19603f3d011682016040523d82523d6000602084013e61041c565b606091505b5050905080610460576040517f08c379a000000000000000000000000000000000000000000000000000000000815260040161045790610d27565b60405180910390fd5b7f513127da5c0be50bc9c6763cb35c374fb3aa664ff0a1fad404452ada92b599248260405161048f9190610b30565b60405180910390a15050565b343373ffffffffffffffffffffffffffffffffffffffff163110156104f5576040517f08c379a00000000000000000000000000000000000000000000000000000000081526004016104ec90610d93565b60405180910390fd5b60016000808282546105079190610de2565b9250508190555060026040518060a001604052803373ffffffffffffffffffffffffffffffffffffffff16815260200184815260200183815260200142815260200134815250908060018154018082558091505060019003906000526020600020906005020160009091909190915060008201518160000160006101000a81548173ffffffffffffffffffffffffffffffffffffffff021916908373ffffffffffffffffffffffffffffffffffffffff16021790555060208201518160010190805190602001906105d9929190610669565b5060408201518160020190805190602001906105f6929190610669565b50606082015181600301556080820151816004015550503373ffffffffffffffffffffffffffffffffffffffff167fb1c1391b0c6c1e7244a4134896b4bc3f12d2c0cdfef990fac76eec58980a8baa83833460405161065793929190610e71565b60405180910390a25050565b60005481565b82805461067590610b7a565b90600052602060002090601f01602090048101928261069757600085556106de565b82601f106106b057805160ff19168380011785556106de565b828001600101855582156106de579182015b828111156106dd5782518255916020019190600101906106c2565b5b5090506106eb91906106ef565b5090565b5b808211156107085760008160009055506001016106f0565b5090565b600081519050919050565b600082825260208201905092915050565b6000819050602082019050919050565b600073ffffffffffffffffffffffffffffffffffffffff82169050919050565b600061076382610738565b9050919050565b61077381610758565b82525050565b600081519050919050565b600082825260208201905092915050565b60005b838110156107b3578082015181840152602081019050610798565b838111156107c2576000848401525b50505050565b6000601f19601f8301169050919050565b60006107e482610779565b6107ee8185610784565b93506107fe818560208601610795565b610807816107c8565b840191505092915050565b6000819050919050565b61082581610812565b82525050565b600060a083016000830151610843600086018261076a565b506020830151848203602086015261085b82826107d9565b9150506040830151848203604086015261087582826107d9565b915050606083015161088a606086018261081c565b50608083015161089d608086018261081c565b508091505092915050565b60006108b4838361082b565b905092915050565b6000602082019050919050565b60006108d48261070c565b6108de8185610717565b9350836020820285016108f085610728565b8060005b8581101561092c578484038952815161090d85826108a8565b9450610918836108bc565b925060208a019950506001810190506108f4565b50829750879550505050505092915050565b6000602082019050818103600083015261095881846108c9565b905092915050565b6000604051905090565b600080fd5b600080fd5b600080fd5b600080fd5b7f4e487b7100000000000000000000000000000000000000000000000000000000600052604160045260246000fd5b6109b6826107c8565b810181811067ffffffffffffffff821117156109d5576109d461097e565b5b80604052505050565b60006109e8610960565b90506109f482826109ad565b919050565b600067ffffffffffffffff821115610a1457610a1361097e565b5b610a1d826107c8565b9050602081019050919050565b82818337600083830152505050565b6000610a4c610a47846109f9565b6109de565b905082815260208101848484011115610a6857610a67610979565b5b610a73848285610a2a565b509392505050565b600082601f830112610a9057610a8f610974565b5b8135610aa0848260208601610a39565b91505092915050565b60008060408385031215610ac057610abf61096a565b5b600083013567ffffffffffffffff811115610ade57610add61096f565b5b610aea85828601610a7b565b925050602083013567ffffffffffffffff811115610b0b57610b0a61096f565b5b610b1785828601610a7b565b9150509250929050565b610b2a81610812565b82525050565b6000602082019050610b456000830184610b21565b92915050565b7f4e487b7100000000000000000000000000000000000000000000000000000000600052602260045260246000fd5b60006002820490506001821680610b9257607f821691505b60208210811415610ba657610ba5610b4b565b5b50919050565b600082825260208201905092915050565b7f63616c6c6572206973206e6f7420746865206f776e6572000000000000000000600082015250565b6000610bf3601783610bac565b9150610bfe82610bbd565b602082019050919050565b60006020820190508181036000830152610c2281610be6565b9050919050565b7f596f752068617665206e6f20657468657220746f207769746864726177000000600082015250565b6000610c5f601d83610bac565b9150610c6a82610c29565b602082019050919050565b60006020820190508181036000830152610c8e81610c52565b9050919050565b600081905092915050565b50565b6000610cb0600083610c95565b9150610cbb82610ca0565b600082019050919050565b6000610cd182610ca3565b9150819050919050565b7f5769746864726177206661696c65640000000000000000000000000000000000600082015250565b6000610d11600f83610bac565b9150610d1c82610cdb565b602082019050919050565b60006020820190508181036000830152610d4081610d04565b9050919050565b7f4e6f7420656e6f7567682066756e647300000000000000000000000000000000600082015250565b6000610d7d601083610bac565b9150610d8882610d47565b602082019050919050565b60006020820190508181036000830152610dac81610d70565b9050919050565b7f4e487b7100000000000000000000000000000000000000000000000000000000600052601160045260246000fd5b6000610ded82610812565b9150610df883610812565b9250827fffffffffffffffffffffffffffffffffffffffffffffffffffffffffffffffff03821115610e2d57610e2c610db3565b5b828201905092915050565b6000610e4382610779565b610e4d8185610bac565b9350610e5d818560208601610795565b610e66816107c8565b840191505092915050565b60006060820190508181036000830152610e8b8186610e38565b90508181036020830152610e9f8185610e38565b9050610eae6040830184610b21565b94935050505056fea2646970667358221220ef0362185d087d1ef12400a23bc3797fb52e8dc2e9643e1ef803c5cbab853e6964736f6c63430008090033",
  "linkReferences": {},
  "deployedLinkReferences": {}
}